:100000000C948C000C949E000C949E000C949E000A
:100010000C949E000C949E000C949E000C949E00E8
:100020000C949E000C949E000C949E000C949E00D8
:100030000C949E000C949E000C949E000C949E00C8
:100040000C949E000C949E000C949E000C949E00B8
:100050000C949E000C949E000C949E000C949E00A8
:100060000C949E000C949E00084AD73B3BCE016E38
:1000700084BCBFFDC12F3D6C74319ABD56833DDAFF
:100080003D00C77F11BED9E4BB4C3E916BAAAABE0E
:10009000000000803F07634236B79BD8A71A396833
:1000A0005618AEBAAB558C1D3CB7CC5763BD6DED41
:1000B000FD753EF6177231BF000000803F0800005A
:1000C00000BE922449123EABAAAA2ABECDCCCC4C8B
:1000D0003E00000080BEABAAAAAA3E00000000BFFE
:1000E000000000803F0000000000084178D3BB43BF
:1000F00087D1133D190E3CC3BD4282AD2B3E68EC47
:100100008276BED98FE1A93E4C80EFFFBE01C4FFCD
:100110007F3F00000000000011241FBECFEFD8E099
:10012000DEBFCDBF21E0A0E0B1E001C01D92A93942
:10013000B207E1F70E94D2040C9420090C9400004D
:10014000CF93DF93549AE3E6F1E0C3E3D1E0A3E079
:10015000B1E0119219921D9281E0E339F807C9F7D5
:10016000DF91CF91089590E0FC01ED59FE4F60833F
:10017000FC01ED5CFE4F4083FC01ED5FFE4F2083F0
:10018000089580E090E020E030E0FC01ED5CFE4F5F
:10019000408150E0022E02C0559547950A94E2F73F
:1001A0005C9A40FF16C00000000000000000000044
:1001B000000000000000000000000000000000003F
:1001C0005C9800000000000000000000000000003B
:1001D0005C9A0000000000000000000000005C9835
:1001E000000000000000000000000000000000000F
:1001F0000000000000000000000000005C9A2F5F7B
:100200003F4F2730310509F0C3CF20E030E0FC013B
:10021000ED59FE4F408150E0022E02C055954795A2
:100220000A94E2F75C9A40FF16C00000000000004C
:1002300000000000000000000000000000000000BE
:10024000000000005C9800000000000000000000BA
:10025000000000005C9A00000000000000000000A8
:1002600000005C980000000000000000000000009A
:10027000000000000000000000000000000000007E
:100280005C9A2F5F3F4F2730310509F0C3CF20E044
:1002900030E0FC01ED5FFE4F408150E0022E02C0D5
:1002A000559547950A94E2F75C9A40FF16C0000006
:1002B000000000000000000000000000000000003E
:1002C00000000000000000005C980000000000003A
:1002D00000000000000000005C9A00000000000028
:1002E0000000000000005C9800000000000000001A
:1002F00000000000000000000000000000000000FE
:10030000000000005C9A2F5F3F4F2730310509F055
:10031000C3CF01968033910509F035CF5C988BED02
:1003200090E00197F1F700C000005C9A08951092E8
:10033000C50087E68093C40088E18093C10086E011
:100340008093C20008958091C00087FFFCCF809108
:10035000C60008959091C00095FFFCCF8093C60021
:100360000895CF93DF93EC018991882319F00E94BF
:10037000AA01FACFDF91CF910895CF93DF93CDB744
:10038000DEB760970FB6F894DEBF0FBECDBF4AE070
:1003900050E0BE016F5F7F4F0E94E008CE010196E2
:1003A0000E94B1018AE090E00E94AA0160960FB617
:1003B000F894DEBF0FBECDBFDF91CF9108951F939C
:1003C000CF93DF931F92CDB7DEB7182F69830E94BA
:1003D000050382E30E942903812F0E94290369817A
:1003E000862F0E9429030F90DF91CF911F910C94CB
:1003F00018031F93CF93DF931F92CDB7DEB7182F4B
:100400000E94050382E30E942903812F0E94290391
:100410000E94050383E30E945F0380E00E94D503EE
:1004200089830E94180389810F90DF91CF911F91DA
:1004300008951F93CF93DF931F92CDB7DEB7182F88
:1004400069830E9405038CE30E942903812F0E9487
:1004500029036981862F0E9429030F90DF91CF9194
:100460001F910C9418031F93CF93DF931F92CDB766
:10047000DEB7182F0E9405038CE30E942903812F09
:100480000E9429030E9405038DE30E945F0380E020
:100490000E94D50389830E94180389810F90DF9100
:1004A000CF911F910895CF9388E20E943302C82F05
:1004B00089E20E94330290E08C0F911D96958795FA
:1004C000CF910895CF938AE20E943302C82F8BE226
:1004D0000E94330290E08C0F911D96958795CF91E5
:1004E0000895CF92DF92EF92FF92CF93DF9300D0E7
:1004F00000D0CDB7DEB70E9453026C010E946202A9
:100500007C01B60180E090E00E945F069B01AC0197
:10051000B70180E090E029833A834B835C830E949B
:100520005F0629813A814B815C810E946F0525E538
:1005300038EA47ED5DE30E94FC046B017C0120E09A
:1005400030E0A9010E94C20587FF0AC023EC35EF05
:1005500048EC50E4C701B6010E94FC046B017C0129
:1005600023EC35EF48EC50E4C701B6010E94360792
:10057000181654F423EC35EF48EC50E4C701B601EB
:100580000E94FB046B017C0120E030E044E353E473
:10059000C701B6010E9441072BED3FE049E450E45A
:1005A0000E94C6050F900F900F900F90DF91CF9192
:1005B000FF90EF90DF90CF900895CF938CE20E9450
:1005C0003302C82F8DE20E94330290E08C0F911D00
:1005D00096958795CF91089568E083E20E94DF01A8
:1005E00067E480E20E94DF016CE080E00E94190273
:1005F00060E281E00E94190260E082E00C9419023E
:10060000209A219A289A299A0895209A219A85E178
:100610008A95F1F70000289A299A8AE08A95F1F7DD
:1006200000C029988AE08A95F1F700C028980895BB
:100630008AE08A95F1F700C0219A29988AE08A9584
:10064000F1F700C0289A8AE08A95F1F700C0299A4C
:100650000895219A4AE04A95F1F700C027E030E07A
:1006600090E0AC01022E02C0559547950A94E2F73E
:1006700040FF02C0299A01C029984AE04A95F1F743
:1006800000C0289A45E14A95F1F7000028984AE011
:100690004A95F1F700C02150310918F721988AE0F6
:1006A0008A95F1F700C0289A83B195E19A95F1F700
:1006B000000028988695817091E089270895880F19
:1006C00081600C942903880F0C942903CF93DF9346
:1006D00000D01F92CDB7DEB74B836A8389830E9417
:1006E00005038981880F0E9429036A81862F0E9451
:1006F00029034B81442339F00F900F900F90DF9125
:10070000CF910C9418030F900F900F90DF91CF9121
:1007100008951F93CF93DF9300D0CDB7DEB76A83E0
:1007200089830E9405038981880F81600E942903C3
:100730002198299A27E030E010E041E050E06A81FA
:1007400085E18A95F1F70000289AEAE0EA95F1F749
:1007500000C0199907C0FA01022E01C0EE0F0A94D9
:10076000EAF71E2BFAE0FA95F1F700C0289821501D
:10077000310930F7EAE0EA95F1F700C0219A2998AB
:10078000FAE0FA95F1F700C0289A85E18A95F1F729
:100790000000289861110E941803812F80950F9006
:1007A0000F90DF91CF911F910895CF932198299AAF
:1007B00027E030E0C0E041E050E095E19A95F1F7A4
:1007C0000000289A9AE09A95F1F700C0199907C09D
:1007D000BA01022E01C0660F0A94EAF7C62B9AE00E
:1007E0009A95F1F700C028982150310930F79AE026
:1007F0009A95F1F700C0219A882311F0299801C039
:10080000299A9AE09A95F1F700C0289A95E19A956D
:10081000F1F7000028989AE09A95F1F700C081114D
:1008200029989AE09A95F1F700C0289A95E19A954F
:10083000F1F70000289881110E9418038C2F8095F1
:10084000CF9108950C949701CF93C1E00E94A3012A
:100850008F3F2FEF9207D1F320910201211102C0A7
:1008600020E01BC02091000130910101F901EE0F41
:10087000FF1FED56FE4F918380832F5F3F4F3093D4
:100880000101209300012330310551F7109201013D
:10089000109200011092020121E0039711F4C0931D
:1008A0000201222399F2209197013091980144E6A8
:1008B000429FC001439F900D11244091950150919A
:1008C00096016AE0649F9001659F300D1124820FAC
:1008D000931F2091930130919401820F931FCF9128
:1008E0000895AF92BF92CF92DF92EF92FF921F9343
:1008F000CF93DF9300D000D0CDB7DEB76C0183E09B
:1009000090E00E94BD0110E0E12CF12C5AE0A52EF0
:10091000B12C2FEF8DEE92E0215080409040E1F716
:1009200000C00000612F70E080E090E00E945F0650
:100930009B01AC0160E070E080E291E40E94A407BA
:100940009B01AC01C701B60129833A834B835C83C9
:100950000E945F0629813A814B815C810E94C60515
:100960000E942E06CB01B5010E94D3040E94BD0156
:100970001F5F133071F6EFEFFFEC27E0E150F0401E
:100980002040E1F700C000000F900F900F900F90F3
:10099000DF91CF911F91FF90EF90DF90CF90BF90AC
:1009A000AF900895FFCF97FB072E16F4009407D061
:1009B00077FD09D00E94E70407FC05D03EF490952E
:1009C00081959F4F0895709561957F4F0895AA1B5B
:1009D000BB1B51E107C0AA1FBB1FA617B70710F02A
:1009E000A61BB70B881F991F5A95A9F7809590955C
:1009F000BC01CD0108955058BB27AA270ED0FCC1D9
:100A0000EDD130F0F2D120F031F49F3F11F41EF41B
:100A1000BDC10EF4E095E7FBB3C1E92FFED180F331
:100A2000BA17620773078407950718F071F49EF5EB
:100A300016C20EF4E0950B2EBA2FA02D0B01B901B2
:100A400090010C01CA01A0011124FF27591B99F044
:100A5000593F50F4503E68F11A16F040A22F232F50
:100A6000342F4427585FF3CF469537952795A795A0
:100A7000F0405395C9F77EF41F16BA0B620B730B47
:100A8000840BBAF09150A1F0FF0FBB1F661F771FB8
:100A9000881FC2F70EC0BA0F621F731F841F48F46D
:100AA000879577956795B795F7959E3F08F0B3CFF3
:100AB0009395880F08F09927EE0F979587950895DD
:100AC0008DD158F080E891E009F49EEF8ED128F0A6
:100AD00040E851E059F45EEF09C058C1C0C1E92FA8
:100AE000E0789BD168F3092E052AC1F32617370752
:100AF0004807590738F00E2E07F8E02569F0E02581
:100B0000E0640AC0EF6307F8009407FADB01B9015B
:100B10009D01DC01CA01AD01EF9347D06DD10AD030
:100B20005F91552331F02BED3FE049E450FD49EC56
:100B300063CF0895DF93DD27B92FBF7740E85FE3E8
:100B40001616170648075B0710F4D92F93D19F9309
:100B50008F937F936F9344D2E8E6F0E01AD14CD1A3
:100B60002F913F914F915F9198D1DD2349F090589B
:100B7000A2EA2AED3FE049EC5FE3D0785D274DDF44
:100B8000DF913AC1D9D008F481E008950CD034C186
:100B90002CD140F023D130F021F45F3F19F0F0C0A8
:100BA00051115EC1F3C039D198F39923C9F355238C
:100BB000B1F3951B550BBB27AA2762177307840750
:100BC00038F09F5F5F4F220F331F441FAA1FA9F306
:100BD00033D00E2E3AF0E0E830D091505040E695F8
:100BE000001CCAF729D0FE2F27D0660F771F881F59
:100BF000BB1F261737074807AB07B0E809F0BB0B48
:100C0000802DBF01FF2793585F4F2AF09E3F51056B
:100C100068F0B6C025C15F3FECF3983EDCF38695E3
:100C200077956795B795F7959F5FC9F7880F911DE1
:100C30009695879597F90895E1E0660F771F881FCD
:100C4000BB1F621773078407BA0720F0621B730B80
:100C5000840BBA0BEE1F88F7E095089504D06894D2
:100C6000B111FEC00895E1D088F09F5790F0B92FE0
:100C70009927B751A0F0D1F0660F771F881F991FF1
:100C80001AF0BA95C9F712C0B13081F0E8D0B1E0DE
:100C90000895E5C0672F782F8827B85F39F0B93FEE
:100CA000CCF3869577956795B395D9F73EF49095F3
:100CB0008095709561957F4F8F4F9F4F0895E89471
:100CC00009C097FB3EF490958095709561957F4F94
:100CD0008F4F9F4F9923A9F0F92F96E9BB27939542
:100CE000F695879577956795B795F111F8CFFAF452
:100CF000BB0F11F460FF1BC06F5F7F4F8F4F9F4F83
:100D000016C0882311F096E911C0772321F09EE8E0
:100D1000872F762F05C0662371F096E8862F70E046
:100D200060E02AF09A95660F771F881FDAF7880F20
:100D30009695879597F90895990F0008550FAA0B76
:100D4000E0E8FEEF16161706E807F907C0F01216DE
:100D50001306E407F50798F0621B730B840B950BE1
:100D600039F40A2661F0232B242B252B21F4089536
:100D70000A2609F4A140A6958FEF811D811D0895D3
:100D800097F99F6780E870E060E008959FEF80EC3E
:100D90000895DF93CF931F930F93FF92EF92DF920B
:100DA0007B018C01689405C0DA2EEF0176D0FE013C
:100DB000E894A5912591359145915591AEF3EF01B8
:100DC0002CDEFE019701A801DA9479F7DF90EF900D
:100DD000FF900F911F91CF91DF91089500240A9405
:100DE0001616170618060906089500240A94121606
:100DF0001306140605060895092E0394000C11F439
:100E0000882352F0BB0F40F4BF2B11F460FF04C0E5
:100E10006F5F7F4F8F4F9F4F089557FD9058440F3E
:100E2000551F59F05F3F71F04795880F97FB991F49
:100E300061F09F3F79F08795089512161306140606
:100E4000551FF2CF4695F1DF08C016161706180693
:100E5000991FF1CF86957105610508940895E8946E
:100E6000BB2766277727CB0197F9089565DF08F43C
:100E70008FEF08959B01AC0160E070E080E89FE394
:100E800085CE0BD0B9CFAADF28F0AFDF18F09523BD
:100E900009F076CF7BCF1124E3CFBFDFA0F3959F7E
:100EA000D1F3950F50E0551F629FF001729FBB2751
:100EB000F00DB11D639FAA27F00DB11DAA1F649FFD
:100EC0006627B00DA11D661F829F2227B00DA11DB0
:100ED000621F739FB00DA11D621F839FA00D611D36
:100EE000221F749F3327A00D611D231F849F600D57
:100EF000211D822F762F6A2F11249F5750408AF090
:100F0000E1F088234AF0EE0FFF1FBB1F661F771F1B
:100F1000881F91505040A9F79E3F510570F030CF87
:100F20009FCF5F3FECF3983EDCF38695779567950E
:100F3000B795F795E7959F5FC1F7FE2B880F911D39
:100F40009695879597F90895FA01EE0FFF1F309651
:100F50002105310599F16115710561F48038BFE310
:100F60009B0749F168949038810561F08038BFEFA4
:100F70009B0741F0992342F5FF3FE105310521052B
:100F800011F1E8940894E795D901AA2329F4AB2F2D
:100F9000BE2FF85FD0F310C0FF5F70F4A695E0F7A6
:100FA000F73950F019F0FF3A38F49F779F930CD03F
:100FB0000F9007FC905808953EF0E8CE60E070E096
:100FC00080E89FE308954FE79F775F934F933F93A8
:100FD0002F9375D02F913F914F915F9152DF08C0B1
:100FE0009B01AC014ECF19F40EF0CACE38CFCECE55
:100FF0001CDFC8F39638C0F707F80F92E8942BE38C
:101000003AEA48EB5FE74BDF0F920F920F924DB732
:101010005EB70F9294D0E5E9F0E0BBDE4F915F91AF
:10102000EF91FF91E595EE1FFF1F49F0FE57E06835
:101030004427EE0F441FFA95E1F74195550B06D072
:101040000F9007FE17CF08959BCEACC0EEDEE8F3FD
:101050009923D9F3940F511DBBF39150504094F054
:1010600059F0882332F0660F771F881F9150504047
:10107000C1F79E3F510544F7880F911D96958795BE
:1010800097F908955F3FACF0983E9CF0BB2786959A
:1010900077956795B79508F4B1609395C1F7BB0F45
:1010A00058F711F460FFE8CF6F5F7F4F8F4F9F4F6E
:1010B000E3CFD6CE0EF076C069CE689461CEB5DEB1
:1010C000C8F39923D1F3C6F3DF93CF931F930F9304
:1010D000FF92C92FDD2788232AF02197660F771FFB
:1010E000881FDAF720E030E040E85FEB9FE38839C3
:1010F00020F0803E30F021968F777EDCEDEBF0E043
:1011000003C07ADCEAEEF0E044DE8B01BE01EC01C4
:10111000FB2E6F5771097595771F880B990BD1DDE1
:1011200028E132E741E35FE3B8DEAF2D9801AE017D
:10113000FF900F911F91CF91DF916FDC5DCEFA018F
:10114000DC01AA0FBB1F9B01AC01BF5728F422276B
:101150003327442750781FC0B75188F4AB2F0024A1
:10116000469537952795011CA395D2F3002069F089
:10117000220F331F441FB395DAF30DD03CCC6130FE
:101180007105A0E88A07B94630F49B01AC016627D7
:10119000772788279078309621F020833183428307
:1011A000538308959F3F31F0915020F487957795B0
:1011B0006795B795880F911D9695879597F908952E
:1011C0004532510520F4423010F00C94EB08FB013D
:1011D0001082CB010895BB274A3031F4992322F4C1
:1011E000BDE2909581959F4F0C94F708BB27FB01BA
:1011F0005527AA27880F991FAA1FA41710F0A41B10
:1012000083955051B9F7A05DAA3308F0A95DA19369
:10121000009779F7B111B1931192CB010C94100999
:10122000DC01FC01672F71917723E1F7329704C04D
:101230007C916D9370836291AE17BF07C8F30895D8
:04124000F894FFCF50
:00000001FF
