:100000000C942A000C9447000C9447000C947C0735
:100010000C9447000C9447000C946A070C9447001A
:100020000C9447000C9447000C9447000C94470034
:100030000C9447000C9447000C9447000C94470024
:100040000C9447000C9447000C9447000C9437071D
:100050000C94470011241FBECFE5D4E0DEBFCDBF16
:1000600010E0A0E6B0E0E8E4FCE102C005900D92EB
:10007000AA38B107D9F720E0AAE8B0E001C01D9284
:10008000A539B207E1F70E94AC0C0C94220E0C9437
:1000900000008FB78F778FBF15BC85B5886085BD91
:1000A00085B5876085BD82EC83BD14BC89B7806847
:1000B00089BF8FB780688FBF08958FB78F778FBF45
:1000C00014BC08958FB780688FBF089587B38C786C
:1000D00087BB0895861710F0282F01C0262F30E027
:1000E000481710F4242F30E0B19913C05FEF81EE70
:1000F00094E0515080409040E1F700C000002F5F35
:100100003F4F842F90E001962817390711F4262FCE
:1001100030E0B49912C05FEF81EE94E0515080401E
:100120009040E1F700C000002150310970E06150BB
:1001300071092617370709F4242F822F0895BF92DB
:10014000CF92DF92EF92FF920F931F93CF93DF93A3
:10015000CDB7DEB727970FB6F894DEBF0FBECDBF81
:1001600010E0D12CF12C8AE0B82EB0990BC02FEF03
:1001700081EE94E0215080409040E1F700C0000003
:1001800000E001C001E0111102C04BE31CC01130BE
:1001900019F447E160E00FC0123011F447E005C0E8
:1001A0001330B9F0143019F44FE161E00DC015308F
:1001B00039F44CE061E08D2D0E946A00D82E0AC00F
:1001C000163041F443E660E08F2D0E946A00F82E5D
:1001D00001C0D12CB5992FC00E947705212F30E0A6
:1001E000E1E0F0E0EC0FFD1FE20FF31F10FD05C092
:1001F000F082123041F4F12C05C0D082D12CF12CC8
:10020000123009F413E01F5F2FEF81EE94E02150CC
:1002100080409040E1F700C00000173061F4CF80CB
:10022000EE800D812B814A81698180E00E948104EA
:100230000E94A30600E08F2D6B2D0E94B20DE82EC8
:10024000692F81E00E9493056E2D82E00E94930544
:10025000163059F08D2D6B2D0E94B20DE82E692FAE
:1002600083E00E9493056E2D05C060E083E00E944C
:10027000930562E084E00E949305011176CF2796F2
:100280000FB6F894DEBF0FBECDBFDF91CF911F91A7
:100290000F91FF90EF90DF90CF90BF900895CF9295
:1002A000DF92EF92FF920F931F93CF93DF9300D0D3
:1002B0001F92CDB7DEB710E0F12C00E09AE0D92E06
:1002C000B0990BC02FEF81EE94E021508040904018
:1002D000E1F700C00000E12C02C0EE24E39411110C
:1002E00003C04BE360E00DC0113039F447E160E03A
:1002F0008F2D0E946A00F82E08C0123031F447E0BA
:1003000061E0802F0E946A00082FB59927C00E94E3
:100310007705212F30E0E1E0F0E0EC0FFD1FE20F68
:10032000F31F10FD04C00083123021F402C0F082DC
:10033000F12C00E01F5F2FEF81EE94E02150804010
:100340009040E1F700C00000133041F449816A8118
:100350008B810E94B3030E94A306E12C802F6D2D98
:100360000E94B20DC82E692F81E00E9493056C2D6A
:1003700082E00E9493058F2D6D2D0E94B20DC82E34
:10038000692F83E00E9493056C2D84E00E94930501
:10039000E11096CF0F900F900F90DF91CF911F91AA
:1003A0000F91FF90EF90DF90CF900895CF93DF9360
:1003B000C1E0B0990BC02FEF81EE94E02150804056
:1003C0009040E1F700C00000D0E001C0D1E047E07C
:1003D00061E08C2F0E946A00C82FB59911C02FEFE1
:1003E00081EE94E0215080409040E1F700C0000091
:1003F0000E9477058C2F0E946D040E94A306D0E016
:100400006C2F81E00E94930560E082E00E949305DA
:1004100060E083E00E94930560E084E00E94930521
:10042000D111C7CFDF91CF910895CF93C1E08C2F29
:100430000E946D04CF5FC830D1F7CF910C94A30612
:10044000CF93DF930E945D002FEF81EE94E0215067
:1004500080409040E1F700C00000C1E0AF9AB09941
:100460000DC02FEF81EE94E0215080409040E1F7E5
:1004700000C000000E946200D0E001C0D1E044E072
:1004800061E08C2F0E946A00C82FB59921C02FEF20
:1004900081EE94E0215080409040E1F700C00000E0
:1004A0000E947705C13019F40E949F000EC0C2302F
:1004B00019F40E944F0109C0C33019F40E94D601FB
:1004C00004C0C43011F40E9415020E946200D0E002
:1004D0006C2F81E00E94930560E082E00E9493050A
:1004E0006AE083E00E94930560E084E00E94930547
:1004F000D111B4CFDF91CF910895A09AA19AA89A73
:10050000A99A0895A09AA19A8AE08A95F1F700C065
:10051000A89AA99A85E08A95F1F70000A99885E044
:100520008A95F1F70000A898089585E08A95F1F77B
:100530000000A19AA99885E08A95F1F70000A89A91
:1005400085E08A95F1F70000A99A0895A19A45E0FF
:100550004A95F1F7000027E030E090E0AC01022E70
:1005600002C0559547950A94E2F740FF02C0A99A48
:1005700001C0A99845E04A95F1F70000A89A4AE021
:100580004A95F1F700C0A89845E04A95F1F70000B8
:100590002150310918F7A19885E08A95F1F70000FC
:1005A000A89A83B39AE09A95F1F700C0A898869527
:1005B000817091E089270895880F81600C94A602CC
:1005C000880F0C94A602CF93DF9300D01F92CDB773
:1005D000DEB74B836A8389830E9482028981880FF8
:1005E0000E94A6026A81862F0E94A6024B814423A4
:1005F00039F00F900F900F90DF91CF910C949502EE
:100600000F900F900F90DF91CF9108951F93CF938C
:10061000DF9300D0CDB7DEB76A8389830E94820260
:100620008981880F81600E94A602A198A99A27E07B
:1006300030E010E041E050E06A818AE08A95F1F70D
:1006400000C0A89AE5E0EA95F1F70000999907C083
:10065000FA01022E01C0EE0F0A94EAF71E2BF5E014
:10066000FA95F1F70000A8982150310930F7E5E03C
:10067000EA95F1F70000A19AA998F5E0FA95F1F74B
:100680000000A89A8AE08A95F1F700C0A898611145
:100690000E949502812F80950F900F90DF91CF914E
:1006A0001F910895CF93A198A99A27E030E0C0E068
:1006B00041E050E09AE09A95F1F700C0A89A95E0E1
:1006C0009A95F1F70000999907C0BA01022E01C06E
:1006D000660F0A94EAF7C62B95E09A95F1F70000A9
:1006E000A8982150310930F795E09A95F1F700006C
:1006F000A19A882311F0A99801C0A99A95E09A952A
:10070000F1F70000A89A9AE09A95F1F700C0A8982E
:1007100095E09A95F1F700008111A99895E09A95D6
:10072000F1F70000A89A9AE09A95F1F700C0A8980E
:1007300081110E9495028C2F8095CF910895E199A7
:10074000FECF8EBB93709FBB6DBBE29AE19A08957A
:10075000E199FECF1CBA8EBB93709FBBE09AE099E3
:10076000FECF8DB30895EF92FF921F93CF93DF9347
:100770001F92CDB7DEB7E82E162F80E090E04983B8
:100780000E94A803F12C91E0E91AF10821E030E081
:100790000E2C01C0220F0A94EAF7682F622B80E02A
:1007A00090E00E949F03F701E859FF4F8081498143
:1007B000642F90E00E949F03F701EF59FF4F808163
:1007C000612F90E00F90DF91CF911F91FF90EF90FC
:1007D0000C949F03EF92FF920F931F93CF93DF939D
:1007E000CDB7DEB72C970FB6F894DEBF0FBECDBFE6
:1007F00083E00E940E05EE24EA94E80E80E090E08B
:100800000E94A803782F7F770E2D10E0272F30E06D
:100810000E2C02C0359527950A94E2F720FF46C0BA
:1008200081E07C870E940E05982F92959F70582F2B
:100830005F708AE0989F500D112482E05B870E94D0
:100840000E05982F92959F70482F4F708AE0989FC1
:10085000400D112480E04A870E940E05982F929542
:100860009F70682F6F708AE0989F600D1124F801C7
:10087000EF59FF4F808190E069870E94A803F82E0E
:10088000F801E859FF4F808190E00E94A803982F5B
:100890004A855B8569857C854F110FC058130CC054
:1008A00021E06E3109F020E0F42E08C090E0F12C38
:1008B00060E050E040E001C0F42E20E03E2D8F2D9E
:1008C0002C960FB6F894DEBF0FBECDBFDF91CF914F
:1008D0001F910F91FF90EF900895CF93C82F80E064
:1008E00090E00E94A803C15061E070E001C0660F73
:1008F000CA95EAF76095682380E090E0CF910C9468
:100900009F03BF92CF92DF92EF92FF920F931F93BC
:10091000CF93DF931F92CDB7DEB7562F3AE0632F08
:100920000E94B20D60E1869FF0011124D92EDE2ACB
:10093000852F632F0E94B20D50E1859FF001112495
:10094000F92EFE2A842F0E94B20D60E1869FA0013D
:100950001124192F142B802F632F0E94B20DE0E178
:100960008E9FA0011124B92EB42A8E2D0E94B20DA3
:10097000F0E18F9FA0011124E92EE42A8C2D0E9422
:10098000B20D30E1839FA0011124092F042B29838C
:100990000E94820288E60E94E00280E00E94A60295
:1009A0008D2D0E94A6028F2D0E94A602812F8F738B
:1009B0000E94A6022981822F87700E94A6028B2D99
:1009C0000E94A6028E2D0E94A602802F0E94A602DF
:1009D0000F90DF91CF911F910F91FF90EF90DF90DB
:1009E000CF90BF900C9495021F93CF93DF931F92EB
:1009F000CDB7DEB7182F69830E94820288E60E9475
:100A0000E002812F0E94A6026981862F0E94A60221
:100A10000F90DF91CF911F910C949502CF93C82F27
:100A20000E94820288E60E94E0028C2F0E94A602A9
:100A30000E94820288E60E94DC0280E0CF910C9442
:100A40005203CF9381E00E940E05982F92959F70DC
:100A5000C82FCF708AE0989FC00D112482E00E94B9
:100A60000E05982F92959F70282F2F708AE0989FDF
:100A7000200D11248C2F90E0922BCF910895CF93CD
:100A800084E00E940E05982F92959F70C82FCF701A
:100A90008AE0989FC00D112485E00E940E05982FD2
:100AA00092959F70282F2F708AE0989F200D112417
:100AB0008C2F90E0922BCF910895A79AAF9ABA9875
:100AC0000E94820288E60E94E00287E00E94A6025D
:100AD00080E10E94A6020C9495020E947D020C9473
:100AE0005D05B29B02C0AF9A0895AF980895AF9A82
:100AF0002FE788E391E0215080409040E1F700C06B
:100B00000000AF982FE788E391E0215080409040AB
:100B1000E1F700C00000AF9A08958FEF8ABB8ABB4F
:100B200081BB81BB0895CF93DF938150282F30E0A4
:100B300070E0220F331F220F331F26583F4F8230A1
:100B400088F580E090E0FB01E159FF4F608170E0A3
:100B500041E050E0F901E80FF91FDB01082E02C067
:100B6000B595A7950A94E2F7A0FF0BC0ABB3EA01D5
:100B7000008002C0CC0FDD1F0A94E2F7AC2BABBBA8
:100B80000CC0ABB3EA01008002C0CC0FDD1F0A9499
:100B9000E2F7FE01E095EA23EBBB01968430910574
:100BA000C9F630C080E090E0FB01E159FF4F608161
:100BB00070E041E050E0F901E80FF91FDB01082E79
:100BC00002C0B595A7950A94E2F7A0FF0BC0A2B3A7
:100BD000EA01008002C0CC0FDD1F0A94E2F7AC2BC3
:100BE000A2BB0CC0A2B3EA01008002C0CC0FDD1F83
:100BF0000A94E2F7FE01E095EA23E2BB0196843015
:100C00009105C9F6DF91CF9108951F93CF93DF939C
:100C1000D82F862FCAE06C2F0E94B20D182F692F93
:100C200081E00E949305612F82E00E9493058D2F41
:100C30006C2F0E94B20DC82F692F83E00E9493058C
:100C40006C2F84E0DF91CF911F910C949305CF938B
:100C500086E00E940E05982F92959F708F702AE073
:100C6000929F800D11246AE00E94B20DC82F692F57
:100C700081E00E9493056C2F82E00E94930560E062
:100C800083E00E94930562E084E0CF910C94930589
:100C90000F931F93CF93DF930E942105192F99275C
:100CA000CAE0D0E0BE010E94BE0D062F682F81E091
:100CB0000E949305602F82E00E949305812F90E0AF
:100CC000BE010E94BE0DC62F682F83E00E949305CF
:100CD0006C2F84E0DF91CF911F910F910C949305BD
:100CE0000F931F93CF93DF930E943F05192F9927EE
:100CF000CAE0D0E0BE010E94BE0D062F682F81E041
:100D00000E949305602F82E00E949305812F90E05E
:100D1000BE010E94BE0DC62F682F83E00E9493057E
:100D20006C2F84E0DF91CF911F910F910C9493056C
:100D3000CF93C1E06AE08C2F0E949305CF5FC5304E
:100D4000C9F7CF910895CF930E949806C1E061E062
:100D50008C2F0E9493052FEF81EE94E0215080406C
:100D60009040E1F700C000000E949806CF5FC530B8
:100D700071F7CF910895CF930E949806C1E060E08B
:100D80008C2F0E9493052FEF81EE94E0215080403C
:100D90009040E1F700C000000E949806CF5FC53088
:100DA00071F7CF910895CF93C82F6AE082E00E9437
:100DB00093056AE083E00E9493056AE084E00E9464
:100DC00093056C2F81E0CF910C9493058FB78F77AB
:100DD0008FBF1FBC1EBC13BE83B78B6083BF8CE765
:100DE0008CBF12BE89B7826089BF8EB588608EBD08
:100DF0008EB581608EBD1DBC1CBC8FB780688FBF57
:100E000008959B01AC018EB5887F8EBD8EB52B3FBA
:100E100031054105510528F081608EBDA1E0B0E0AB
:100E200004C082608EBDA8E0B0E00E94F40D9B017A
:100E3000AC0160E072E18AE790E00E94D20D21509F
:100E40003109369527953BBD2ABD08950895DA01ED
:100E50009B01AC010E94F40D9B01AC0160E072E1CA
:100E60008AE790E00E94D20DC901019708951F9270
:100E70000F920FB60F9211242F933F934F935F93CE
:100E80006F937F938F939F93AF93BF93EF93FF9352
:100E900080919000909191000196909391008093A1
:100EA000900080918B00882319F00E94710501C089
:100EB000AF9AFF91EF91BF91AF919F918F917F91E9
:100EC0006F915F914F913F912F910F900FBE0F90B7
:100ED0001F9018951F920F920FB60F9211248F93A7
:100EE0009F9385B390E4892785BB9F918F910F9045
:100EF0000FBE0F901F9018951F920F920FB60F9272
:100F000011242F933F934F935F936F937F938F930E
:100F10009F93AF93BF93EF93FF9384E00E940E05DE
:100F2000982F92959F708F702AE0929F800D1124C8
:100F30008093940085E00E940E05982F92959F70F3
:100F40008F702AE0929F800D112480938F000E9461
:100F500021059093930083E00E940E0580938E00FC
:100F600080916000882361F080918C0090918D00C9
:100F7000883C910528F481E080938B000E9448060C
:100F800080916000882359F080918C0090918D00B1
:100F9000883C910521F410928B000E94700680918C
:100FA0008C0090918D00019690938D0080938C0021
:100FB00080918C0090918D008831914021F41092A5
:100FC0008D0010928C00FF91EF91BF91AF919F9196
:100FD0008F917F916F915F914F913F912F910F90E2
:100FE0000FBE0F901F901895CF92DF92EF92FF9255
:100FF000CF93DF936B017C01EA0189B7806189BFE0
:10100000109291001092900012BE809190009091E9
:101010009100C817D90728F0C701B6010E9401073F
:10102000F4CF89B78F7E89BFAE98DF91CF91FF90C3
:10103000EF90DF90CF90089544EF51E06CED70E0B9
:1010400080E090E00E94F4072FE38BE39CE02150C6
:1010500080409040E1F700C0000044EF51E06CEDAB
:1010600070E080E090E00E94F4072FE38BE39CE0C7
:10107000215080409040E1F700C0000044EF51E073
:101080006CED70E080E090E00E94F4072FE38BE3CA
:101090009CE0215080409040E1F700C0000047E70D
:1010A00051E06EEA70E080E090E00E94F4072FEFDC
:1010B0008DE299E0215080409040E1F700C00000AF
:1010C0004DE750E065E071E080E090E00E94F407B9
:1010D0002FE783E193E0215080409040E1F700C08A
:1010E000000044EF51E06CED70E080E090E00E9481
:1010F000F4072FE38BE39CE0215080409040E1F720
:1011000000C0000047E751E06EEA70E080E090E048
:101110000E94F4072FEF8DE299E02150804090402B
:10112000E1F700C000004DE750E065E071E080E0CD
:1011300090E00E94F4072FE783E193E02150804084
:101140009040E1F700C0000048EE53E06CED70E025
:1011500080E090E00E94F4072FE380E798E12150BF
:1011600080409040E1F700C0000044EF51E069E4A6
:1011700071E080E090E00E94F4072FE38BE39CE0B5
:10118000215080409040E1F700C0000044EF51E062
:1011900069E471E080E090E00E94F4072FE38BE3C4
:1011A0009CE0215080409040E1F700C0000044EFF7
:1011B00051E069E471E080E090E00E94F4072FE3E1
:1011C0008BE39CE0215080409040E1F700C000009C
:1011D00047E751E06DE571E080E090E00E94F407A0
:1011E0002FEF8DE299E0215080409040E1F700C060
:1011F00000004DE750E065E071E080E090E00E9483
:10120000F4072FE783E193E0215080409040E1F71D
:1012100000C0000044EF51E06FEC70E080E090E02F
:101220000E94F4072FE38BE39CE021508040904024
:10123000E1F700C0000047E751E06EEA70E080E0AF
:1012400090E00E94F4072FEF8DE299E0215080405A
:101250009040E1F700C000004DE750E065E071E02C
:1012600080E090E00E94F4072FE783E193E02150B3
:1012700080409040E1F700C0000048EE53E06CED84
:1012800070E080E090E00E94F4072FE380E798E1AF
:10129000215080409040E1F700C0000044EF51E051
:1012A00068EB71E080E090E00E94F4072FE38BE3AD
:1012B0009CE0215080409040E1F700C0000047E7EB
:1012C00051E06CED70E080E090E00E94F4072FEFB9
:1012D0008DE299E0215080409040E1F700C000008D
:1012E0004DE750E06CED70E080E090E00E94F40784
:1012F0002FE783E193E0215080409040E1F700C068
:10130000000044EF51E068EB71E080E090E00E9463
:10131000F4072FE38BE39CE0215080409040E1F7FD
:1013200000C0000047E751E06FE971E080E090E025
:101330000E94F4072FEF8DE299E021508040904009
:10134000E1F700C000004DE750E068E871E080E0A0
:1013500090E00E94F4072FE783E193E02150804062
:101360009040E1F700C000004DE750E061E771E018
:1013700080E090E00E94F4072FE783E193E02150A2
:1013800080409040E1F700C000004DE750E069E484
:1013900071E080E090E00E94F4072FE783E193E0A2
:1013A000215080409040E1F700C000004AEF50E03B
:1013B0006DE571E080E090E00E94F4072FEB80E2A1
:1013C00096E0215080409040E1F700C000002FEBF4
:1013D00080E296E0215080409040E1F700C000009C
:1013E0004AEF50E069EE70E080E090E00E94F40780
:1013F0002FEB80E296E0215080409040E1F700C062
:10140000000044EF51E067E371E080E090E00E946B
:10141000F4072FE38BE39CE0215080409040E1F7FC
:1014200000C0000047E751E065E271E080E090E035
:101430000E94F4072FEF8DE299E021508040904008
:10144000E1F700C000004DE750E065E171E080E0A9
:1014500090E00E94F4072FE783E193E02150804061
:101460009040E1F700C000004DE750E065E071E01A
:1014700080E090E00E94F4072FE783E193E02150A1
:1014800080409040E1F700C000004DE750E066EF7B
:1014900070E080E090E00E94F4072FE783E193E0A2
:1014A000215080409040E1F700C000004AEF50E03A
:1014B00065E071E080E090E00E94F4072FEB80E2AD
:1014C00096E0215080409040E1F700C000002FEBF3
:1014D00080E296E0215080409040E1F700C000009B
:1014E0004AEF50E06EEA70E080E090E00E94F4077E
:1014F0002FEB80E296E0215080409040E1F700C061
:10150000000044EF51E06FEC70E080E090E00E945A
:10151000F4072FE38BE39CE0215080409040E1F7FB
:1015200000C0000047E751E06EEA70E080E090E024
:101530000E94F4072FEF8DE299E021508040904007
:10154000E1F700C000004DE750E06CED70E080E096
:1015500090E00E94F4072FE783E193E02150804060
:101560009040E1F700C0000044EF51E065E071E019
:1015700080E090E00E94F4072FE38BE39CE0215091
:1015800080409040E1F700C0000047E751E06CED7B
:1015900070E080E090E00E94F4072FEF8DE299E088
:1015A000215080409040E1F700C000004DE750E03E
:1015B00065E071E080E090E00E94F4072FE783E1AE
:1015C00093E0215080409040E1F700C0000048EED9
:1015D00053E069E471E080E090E00E94F4072FE3BB
:1015E00080E798E1215080409040E1F700C0000082
:1015F00044EF51E068EB71E080E090E00E94F40776
:101600002FE38BE39CE0215080409040E1F700C045
:10161000000047E751E06CED70E080E090E00E9450
:10162000F4072FEF8DE299E0215080409040E1F7E0
:1016300000C000004DE750E06CED70E080E090E00D
:101640000E94F4072FE783E193E02150804090400F
:10165000E1F700C0000044EF51E068EB71E080E08A
:1016600090E00E94F4072FE38BE39CE02150804040
:101670009040E1F700C0000047E751E06FE971E0FA
:1016800080E090E00E94F4072FEF8DE299E0215076
:1016900080409040E1F700C000004DE750E068E86E
:1016A00071E080E090E00E94F4072FE783E193E08F
:1016B000215080409040E1F700C000004DE750E02D
:1016C00061E771E080E090E00E94F4072FE783E19A
:1016D00093E0215080409040E1F700C000004DE7CA
:1016E00050E069E471E080E090E00E94F4072FE7A9
:1016F00083E193E0215080409040E1F700C000007A
:101700004AEF50E06DE571E080E090E00E94F40760
:101710002FEB80E296E0215080409040E1F700C03E
:1017200000002FEB80E296E0215080409040E1F7EE
:1017300000C000004AEF50E069EE70E080E090E009
:101740000E94F4072FEB80E296E021508040904009
:10175000E1F700C0000044EF51E067E371E080E092
:1017600090E00E94F4072FE38BE39CE0215080403F
:101770009040E1F700C0000047E751E065E271E00A
:1017800080E090E00E94F4072FEF8DE299E0215075
:1017900080409040E1F700C000004DE750E065E177
:1017A00071E080E090E00E94F4072FE783E193E08E
:1017B000215080409040E1F700C000004DE750E02C
:1017C00065E071E080E090E00E94F4072FE783E19C
:1017D00093E0215080409040E1F700C000004DE7C9
:1017E00050E066EF70E080E090E00E94F4072FE7A1
:1017F00083E193E0215080409040E1F700C0000079
:101800004AEF50E065E071E080E090E00E94F4076C
:101810002FEB80E296E0215080409040E1F700C03D
:1018200000002FEB80E296E0215080409040E1F7ED
:1018300000C000004AEF50E06EEA70E080E090E007
:101840000E94F4072FEB80E296E021508040904008
:10185000E1F700C0000044EF51E06FEC70E080E081
:1018600090E00E94F4072FE38BE39CE0215080403E
:101870009040E1F700C0000047E751E06EEA70E0F9
:1018800080E090E00E94F4072FEF8DE299E0215074
:1018900080409040E1F700C000004DE750E065E077
:1018A00071E080E090E00E94F4072FE783E193E08D
:1018B000215080409040E1F700C0000044EF51E02B
:1018C0006CED70E080E090E00E94F4072FE38BE382
:1018D0009CE0215080409040E1F700C0000047E7C5
:1018E00051E06EEA70E080E090E00E94F4072FEF94
:1018F0008DE299E0215080409040E1F700C0000067
:101900004DE750E065E071E080E090E00E94F40770
:101910002FE783E193E0215080409040E1F700C041
:10192000000048EE53E06CED70E080E090E00E9433
:10193000F4072FE380E798E1215080409040E1F7E1
:1019400000C000002FEF83ED90E3215080409040D5
:10195000E1F700C000000895CF93DF93CDB7DEB765
:1019600028970FB6F894DEBF0FBECDBF0E946D055D
:101970000E948D050E9449000E946600A69AAE9AB8
:1019800080E090E00E94A803881F8827881F80932A
:1019900092000E94E6068AE0F82E11E080918F0006
:1019A0008330A9F580919400883188F180918E0070
:1019B000873069F580919300823049F580919200DB
:1019C000811125C080E090E00E94A803682F606824
:1019D00080E090E00E949F03809193008F5F6F2DC5
:1019E0000E94B20D292F30E1839FC0011124622F84
:1019F000682B6093930082E00E94F40480E090E002
:101A00000E94A803881F8827881F80939200009156
:101A10008F000A30A9F580919400883188F1809177
:101A20008E00873069F580919300833049F580916D
:101A30009200813029F580E090E00E94A803682F91
:101A40006F7780E090E00E949F0380919300815027
:101A5000602F0E94B20D292F30E1839FC001112415
:101A6000622F682B6093930082E00E94F40480E070
:101A700090E00E94A803881F8827881F8093920007
:101A8000B0990AC0109260000E942002109360007A
:101A900010928D0010928C00B19907C010926000D6
:101AA00080918E000E94D306F1CFB4990BC01092A2
:101AB00060000E9427061093600010928D00109223
:101AC0008C00F3CFB5990DC0109260008091920008
:101AD0000E94D3061093600010928D0010928C002B
:101AE000F1CFB69929C010926000809192008823AE
:101AF00079F080E090E00E94A803682F6F7780E083
:101B000090E00E949F030E94BB06109292000EC0BC
:101B100080E090E00E94A803682F606880E090E079
:101B20000E949F030E94A3061093920010936000EE
:101B300010928D0010928C000E94EA0329833A8350
:101B40004B835C836D837E838F839887213009F07C
:101B500025CF89B78F7789BF0E941C0889B7806815
:101B600089BF1CCF991B79E004C0991F961708F014
:101B7000961B881F7A95C9F78095089597FB072EC5
:101B800016F4009407D077FD09D00E94FF0D07FCE2
:101B900005D03EF4909581959F4F0895709561957D
:101BA0007F4F0895A1E21A2EAA1BBB1BFD010DC099
:101BB000AA1FBB1FEE1FFF1FA217B307E407F507FD
:101BC00020F0A21BB30BE40BF50B661F771F881FD9
:101BD000991F1A9469F760957095809590959B016F
:101BE000AC01BD01CF0108950E94130EA59F900D79
:101BF000B49F900DA49F800D911D11240895AA1BE0
:101C0000BB1B51E107C0AA1FBB1FA617B70710F0E7
:101C1000A61BB70B881F991F5A95A9F78095909519
:101C2000BC01CD010895A29FB001B39FC001A39F45
:101C3000700D811D1124911DB29F700D811D112405
:081C4000911D0895F894FFCFF7
:101C480001020406080A0C0E01030507090B0D0022
:101C58000102030405060708090A00020301040635
:0A1C6800070507050406030100024A
:00000001FF
